:100000000C9431000C9450000C944E000C944E0053
:100010000C944E000C944E000C944E000C944E0028
:100020000C944E000C944E000C944E000C944E0018
:100030000C944E000C944E000C944E000C944E0008
:100040000C944E000C944E000C944E000C944E00F8
:100050000C944E0047014A015E017501040115012F
:100060001C0111241FBECFE5D8E0DEBFCDBF10E0DC
:10007000A0E6B0E0EEEFFDE002C005900D92A236E2
:10008000B107D9F720E0A2E6B0E001C01D92AB367F
:10009000B207E1F70E94D3020C94FD060C94000015
:1000A0001F920F920FB60F9211242F933F934F93ED
:1000B0005F936F937F938F939F93AF93BF93EF93D0
:1000C000FF938091630081112AC081E080936300D7
:1000D00080916400813039F41092600080E090E0FB
:1000E0000E94CA021CC0843011F0863079F495E079
:1000F00090936000843029F480E090E00E94CA026E
:100100000EC081E090E00E94CA0209C0833039F439
:1001100082E08093600081E090E00E94CA02FF913B
:10012000EF91BF91AF919F918F917F916F915F916F
:100130004F913F912F910F900FBE0F901F901895E8
:10014000882399F020E041E462E081E40E94C2014A
:1001500021E042E461E081E40E94C20120E042E447
:1001600062E082E40E94C201EDCF089562E084E47F
:100170000E94AA0190916200890F8093620060E062
:1001800081E40E94B60190916200890F8093620021
:1001900061E081E40E94B60190916200890F809332
:1001A000620062E081E40E94B60190916200890FD2
:1001B0008093620060E082E40E94B6019091620048
:1001C000890F8093620061E082E40E94B601909101
:1001D0006200890F8093620062E082E40E94B601AF
:1001E00090916200890F809362000E94A0000E949B
:1001F000B3010895E0916000F0E0E730F105D0F739
:10020000E65DFF4F0C94F70684E08093640022E0E3
:1002100042E460E081E40E94C201809362000E9497
:10022000A00080916000853029F3809160008530C6
:1002300019F487E38093600086E0809364000F2EBA
:10024000F5E0CF2EF02D14E0E12E16E5F12E0EE0B4
:100250001FE321E042E461E081E40E941202809306
:1002600062000E94A00080916000853019F222E0B7
:1002700042E460E081E40E94EB01809362000E940E
:10028000A00080916000873311F41092630084E035
:100290008093600081E08093640022E041E460E0AC
:1002A00082E40E94C201809362000E94A0008091BB
:1002B0006000882309F49ECF109263008091600053
:1002C000823099F405E024E036E54EE05FE361E03A
:1002D00081E40E948202809362000E94A00086E175
:1002E0008093600082E0809364008091640082309B
:1002F000B9F083E0809364000F2EF5E0CF2EF02D4F
:1003000014E0E12E16E5F12E0EE01FE321E042E4B9
:1003100061E081E40E941202809362000E94A000CA
:1003200080916000823009F465CF22E041E460E012
:1003300082E40E94EB01809362000E94A000809101
:100340006000863109F056CF1092630084E08093FC
:10035000600050CF982F862F40E0692F0E94DA026C
:1003600080936A0008950E9459040895982F862F5B
:1003700041E0692F0E94DA0290916500890F809315
:1003800065000895CF93DF93982F862FD42FC22F27
:1003900041E0692F0E94790390916500890F809355
:1003A000650041E06D2F8C2F0E94790390916500CC
:1003B000890F8093650040E050E060EA70E481E0DE
:1003C00090E00E94940490916500890F80936500ED
:1003D000DF91CF910895CF93DF93982F862FD42F5D
:1003E000C22F40E0692F0E94790390916500890F28
:1003F0008093650040E06D2F8C2F0E9479039091CF
:100400006500890F80936500DF91CF910895982F43
:10041000862F692F0E94140490916500890F8093A4
:10042000650008954F925F926F927F92AF92BF9254
:10043000CF92DF92EF92FF920F931F93CF93DF93B0
:10044000A82EB62ED42ED22F270138010E94610487
:10045000C1E044C080916600813019F410926600BA
:1004600040C06B2D8A2D0E94070290916500890F74
:10047000809365006D2F8D2D0E940702909165007D
:10048000890F80936500B301A20181E090E00E9492
:10049000940490916500890F809365006B2D8A2DDF
:1004A0000E94070290916500890F809365006D2F6F
:1004B0008D2D0E94070290916500890F8093650041
:1004C000CC1559F0B301A20181E090E00E949404A0
:1004D00090916500890F80936500CF5FCC1608F07E
:1004E000B9CF80916500DF91CF911F910F91FF905F
:1004F000EF90DF90CF90BF90AF907F906F905F9024
:100500004F900895CF92DF92EF92FF920F931F9337
:10051000CF93DF93182FD62F69017A010E946104CF
:10052000C1E02BC06D2F812F0E94070290916500C2
:10053000890F80936500B701A60181E090E00E94D9
:10054000940490916500890F809365006D2F812F31
:100550000E94070290916500890F80936500C01783
:1005600059F0B701A60181E090E00E9494049091B7
:100570006500890F80936500CF5F0C1798F6809116
:100580006500DF91CF911F910F91FF90EF90DF9069
:10059000CF900895CF93C82F81E00E94F104C093BB
:1005A0006600CF9108950E94B6000E94FA0080E094
:1005B00090E00895623471F118F4613441F093C011
:1005C000633409F44AC0643409F46AC08CC0411130
:1005D0000EC04AB321E030E0B90102C0660F771FB8
:1005E0008A95E2F7CB01809584238ABB7FC0413096
:1005F00069F44AB321E030E0B90102C0660F771F09
:100600008A95E2F7CB01842B8ABB70C081E080938E
:1006100067006CC041110EC047B321E030E0B90162
:1006200002C0660F771F8A95E2F7CB01809584237D
:1006300087BB5CC0413069F447B321E030E0B901C9
:1006400002C0660F771F8A95E2F7CB01842B87BB28
:100650004DC081E08093670049C041110EC044B392
:1006600021E030E0B90102C0660F771F8A95E2F7FA
:10067000CB018095842384BB39C0413069F444B3F5
:1006800021E030E0B90102C0660F771F8A95E2F7DA
:10069000CB01842B84BB2AC081E08093670026C0F5
:1006A00041110EC041B321E030E0B90102C0660F34
:1006B000771F8A95E2F7CB018095842381BB16C012
:1006C000413069F441B321E030E0B90102C0660F66
:1006D000771F8A95E2F7CB01842B81BB07C081E0AD
:1006E0008093670003C081E080936700809167007A
:1006F0000895623471F118F4613441F092C06334AA
:1007000009F44AC0643409F46AC08BC041110EC0B8
:100710004BB321E030E0B90102C0660F771F8A9524
:10072000E2F7CB01809584238BBB7BC0413069F419
:100730004BB321E030E0B90102C0660F771F8A9504
:10074000E2F7CB01842B8BBB6CC081E08093670008
:1007500068C041110EC048B321E030E0B90102C0C9
:10076000660F771F8A95E2F7CB018095842388BBBB
:1007700058C0413069F448B321E030E0B90102C00B
:10078000660F771F8A95E2F7CB01842B88BB49C09F
:1007900081E08093670045C041110EC045B321E060
:1007A00030E0B90102C0660F771F8A95E2F7CB01EE
:1007B0008095842385BB35C0413069F445B321E081
:1007C00030E0B90102C0660F771F8A95E2F7CB01CE
:1007D000842B85BB26C081E08093670022C0411135
:1007E0000EC042B321E030E0B90102C0660F771FAE
:1007F0008A95E2F7CB018095842382BB12C04130F9
:1008000069F442B321E030E0B90102C0660F771FFE
:100810008A95E2F7CB01842B82BB03C081E08093F1
:1008200067008091670008956234B1F018F4613474
:1008300031F039C06334E9F0643441F134C04BB372
:1008400021E030E0B90102C0660F771F8A95E2F718
:10085000CB0184278BBB2AC048B321E030E0B9012B
:1008600002C0660F771F8A95E2F7CB01842788BB09
:100870001DC045B321E030E0B90102C0660F771F0B
:100880008A95E2F7CB01842785BB10C042B321E0F3
:1008900030E0B90102C0660F771F8A95E2F7CB01FD
:1008A000842782BB03C081E080936700809167004A
:1008B0000895789485B7836085BF8BB780648BBFBC
:1008C000089513BE12BE08951092680080349105F9
:1008D000B9F030F48130910559F0089769F01CC0E7
:1008E000811521E0920781F08115944089F014C0B0
:1008F00083B7816083BF13C083B7826083BF0FC09B
:1009000083B7836083BF0BC083B7846083BF07C096
:1009100083B7856083BF03C081E0809368008091C6
:100920006800089513BE08958F929F92AF92BF9270
:10093000CF92DF92EF92FF927C014A015B01BC01F2
:1009400080E090E00E94D80520E034E244E75BE4D8
:100950000E94660520E030E040E853E40E948A06E9
:100960009B01AC01C501B4010E9466054B015C010D
:10097000C7010E94640480936800C12CD12C7601C9
:1009800017C080916900813019F4109269001CC071
:1009900008B600FEFDCF88B7816088BF20E030E058
:1009A00040E85FE3C701B6010E94F5046B017C01DA
:1009B000A5019401C701B6010E946105882324F4B2
:1009C000809168008130E9F60E949204809168006D
:1009D000FF90EF90DF90CF90BF90AF909F908F905F
:1009E00008958093690008955058BB27AA270E9454
:1009F0000C050C9450060E94420638F00E944906ED
:100A000020F039F49F3F19F426F40C943F060EF4BD
:100A1000E095E7FB0C943906E92F0E94610658F334
:100A2000BA17620773078407950720F079F4A6F5D3
:100A30000C9483060EF4E0950B2EBA2FA02D0B011B
:100A4000B90190010C01CA01A0011124FF27591B13
:100A500099F0593F50F4503E68F11A16F040A22F19
:100A6000232F342F4427585FF3CF4695379527958A
:100A7000A795F0405395C9F77EF41F16BA0B620B89
:100A8000730B840BBAF09150A1F0FF0FBB1F661FD0
:100A9000771F881FC2F70EC0BA0F621F731F841F13
:100AA00048F4879577956795B795F7959E3F08F039
:100AB000B0CF9395880F08F09927EE0F97958795FB
:100AC00008950E94150608F481E008950E947A05B1
:100AD0000C9450060E94490658F00E94420640F0CD
:100AE00029F45F3F29F00C94390651110C948406C7
:100AF0000C943F060E94610668F39923B1F35523D5
:100B000091F3951B550BBB27AA2762177307840720
:100B100038F09F5F5F4F220F331F441FAA1FA9F3B6
:100B200035D00E2E3AF0E0E832D091505040E695A4
:100B3000001CCAF72BD0FE2F29D0660F771F881F05
:100B4000BB1F261737074807AB07B0E809F0BB0BF8
:100B5000802DBF01FF2793585F4F3AF09E3F51050C
:100B600078F00C9439060C9484065F3FE4F3983EC9
:100B7000D4F3869577956795B795F7959F5FC9F7F5
:100B8000880F911D9695879597F90895E1E0660F76
:100B9000771F881FBB1F621773078407BA0720F0EF
:100BA000621B730B840BBA0BEE1F88F7E095089558
:100BB000E89409C097FB3EF49095809570956195F7
:100BC0007F4F8F4F9F4F9923A9F0F92F96E9BB27AD
:100BD0009395F695879577956795B795F111F8CF29
:100BE000FAF4BB0F11F460FF1BC06F5F7F4F8F4F94
:100BF0009F4F16C0882311F096E911C0772321F08A
:100C00009EE8872F762F05C0662371F096E8862F21
:100C100070E060E02AF09A95660F771F881FDAF778
:100C2000880F9695879597F90895990F0008550FA5
:100C3000AA0BE0E8FEEF16161706E807F907C0F062
:100C400012161306E407F50798F0621B730B840B6A
:100C5000950B39F40A2661F0232B242B252B21F444
:100C600008950A2609F4A140A6958FEF811D811DE4
:100C7000089597F99F6780E870E060E008959FEF1E
:100C800080EC089500240A94161617061806090623
:100C9000089500240A9412161306140605060895F2
:100CA000092E0394000C11F4882352F0BB0F40F47A
:100CB000BF2B11F460FF04C06F5F7F4F8F4F9F4FBA
:100CC000089557FD9058440F551F59F05F3F71F03C
:100CD0004795880F97FB991F61F09F3F79F08795A3
:100CE0000895121613061406551FF2CF4695F1DF2C
:100CF00008C0161617061806991FF1CF86957105BC
:100D0000610508940895E894BB2766277727CB01EF
:100D100097F908950E949D060C9450060E94420681
:100D200038F00E94490620F0952311F00C94390602
:100D30000C943F0611240C9484060E94610670F303
:100D4000959FC1F3950F50E0551F629FF001729F70
:100D5000BB27F00DB11D639FAA27F00DB11DAA1F7F
:100D6000649F6627B00DA11D661F829F2227B00DCC
:100D7000A11D621F739FB00DA11D621F839FA00D57
:100D8000611D221F749F3327A00D611D231F849FA7
:100D9000600D211D822F762F6A2F11249F575040FE
:100DA0009AF0F1F088234AF0EE0FFF1FBB1F661F79
:100DB000771F881F91505040A9F79E3F510580F042
:100DC0000C9439060C9484065F3FE4F3983ED4F308
:100DD000869577956795B795F795E7959F5FC1F7E6
:100DE000FE2B880F911D9695879597F90895EE0F24
:0E0DF000FF1F0590F491E02D0994F894FFCFB9
:020DFE000400EF
:00000001FF
